:100000000EC10000B9C30000E2C300000BC4000031
:1000100034C400005DC4000086C40000AFC400000A
:10002000D8C400002DC100002BC1000029C1000070
:1000300027C1000025C1000023C1000021C100002C
:100040001FC100001DC100001BC1000019C100003C
:1000500017C1000015C1000013C10000E5C4000075
:100060000FC10000C9C70000FDC7000009C10000A2
:1000700007C1000005C1000003C1000001C100006C
:10008000FFC00000FDC00000FBC00000F9C0000080
:10009000F7C00000F5C00000F3C00000F1C0000090
:1000A000EFC00000EDC00000EBC00000E9C00000A0
:1000B000E7C00000E5C00000E3C00000E1C00000B0
:1000C000DFC00000DDC00000DBC00000D9C00000C0
:1000D000D7C00000D5C00000D3C00000D1C00000D0
:1000E000CFC0000096036003680374038103A2037A
:1000F000AF03E405E705D605DA05E0051E06EB05C6
:10010000EF05F505F905FD05030607060B061E06B6
:1001100011061506190600000A0B02090C0D0E083F
:1001200007030401000000000000000000000000C0
:1001300000000000000000000000000000000000BF
:10014000000012111000000000000000000000007C
:10015000000000000000000000000000010210206C
:1001600020080810204010204080020102010804ED
:100170000201010204081020408080402010080481
:1001800002018004020180402010080402010804DA
:10019000020101020408102040800102040810201E
:1001A0004080050505050705080808080202020247
:1001B0000A0A080804040404010101010101010103
:1001C0000303030303030303040707070C0C0C0CCE
:1001D0000C0C0C0C020202020606060606060606B7
:1001E0000B0B0B0B0B0B0B0B000022002500280048
:1001F0002B002E003100340002010000050108012F
:100200000B0100002100240027002A002D003000EF
:10021000330001010000040107010A0164081124F0
:100220001FBECFEFD1E2DEBFCDBF00E00CBF13E0B9
:10023000A0E0B2E0E0EEFCE100E00BBF02C00790FE
:100240000D92A635B107D9F724E0A6E5B3E001C0C9
:100250001D92A032B207E1F712E0CEE1D2E000E059
:1002600006C022970109FE010BBF0E94CE0BCC31C4
:10027000D10780E00807A9F70E949A0B0C946E0E34
:10028000BFCE8091720390917303A0917403B091DB
:1002900075030196A11DB11D8093720390937303A2
:1002A000A0937403B0937503089580916E039091A9
:1002B0006F03A0917003B09171030196A11DB11D50
:1002C00080936E0390936F03A0937003B0937103B8
:1002D0000895DF92EF92FF920F931F93CF93DF93D6
:1002E00081E090E020918C0230918D02821793077B
:1002F00024F58C0123E0000F111F2A95E1F7065F1A
:100300001D4FC0E0D0E020918A0230918B02AC01F9
:100310004F5F5F4F7A01821793076CF4F801EC0F7F
:10032000FD1FD28061E08D2D8AD460E08D2DC0D478
:10033000C7012896E8CFCA01D5CFDF91CF911F9191
:100340000F91FF90EF90DF90089585B5887F8160D1
:1003500085BD80918100887F81608093810080913C
:10036000B100887F81608093B10080919100887F87
:100370008160809391008091A100887F816080934B
:10038000A10080912101887F81608093210126E076
:1003900040E855E260E070E08FE793E0CDD56EE98C
:1003A00072E08FE793E02AD760E08091080247D49B
:1003B00060E08091060243D4209108023091090246
:1003C0002230310551F02330310549F0C9014297FF
:1003D000049738F487E1821B05C080E003C081E008
:1003E00001C08FEF43E050E061E471E054D120910F
:1003F0000602309107022230310551F023303105D9
:1004000049F0C9014297049738F487E1821B05C07F
:1004100080E003C081E001C08FEF43E050E065E57C
:1004200071E039D156CF90935903809358031092BD
:100430005703109256034DDFE0915803F091590392
:10044000EE0FFF1FEE0FFF1F809156039091570391
:10045000E80FF91FEE0FFF1FE65FFD4F61E080819F
:10046000EEC38F929F92AF92BF92CF92DF92EF92A4
:10047000FF92CF93DF93CDB7DEB72C970FB6F894EA
:10048000DEBF0FBECDBF1AD3C0905A03D0905B031E
:10049000E0905C03F0905D036C197D098E099F0963
:1004A000603471058105910508F442C066E473E08B
:1004B000CE0107960E945D0A8FE793E02ED4892B28
:1004C000A1F16FE773E0CE01019679D7BE016F5FAE
:1004D0007F4FCE0107960E94A60ACE01019686D7CD
:1004E0002B853C8540E050E0BE01695F7F4FCE0127
:1004F00001960E944C0B65E173E0CE0101960E94CB
:100500002E0BF82ECE01019671D7FF2071F063E219
:1005100073E0CE010196D1D7CE0101960E948F0BD8
:10052000CB0181DFCE01019661D7CE0107965ED760
:10053000C5D2C0905A03D0905B03E0905C03F0906A
:100540005D036C197D098E099F09603E734081052A
:10055000910508F48EC0B2D260935A0370935B0386
:1005600080935C0390935D03809172039091730379
:10057000A0917403B0917503809362039093630319
:10058000A0936403B093650340916A0350916B0399
:1005900060916C0370916D034C015D01841A950AA2
:1005A000A60AB70A80936A0390936B03A0936C0327
:1005B000B0936D0380916E0390916F03A0917003CF
:1005C000B091710380935E0390935F03A0936003E7
:1005D000B093610340916603509167036091680393
:1005E000709169036C017D01C41AD50AE60AF70A05
:1005F0008093660390936703A0936803B0936903A5
:1006000065E273E08FE793E0EED54AE06FEF72E0CA
:10061000CE010196BCD7BE016F5F7F4F8FE793E09D
:10062000D4D5CE010196E2D665E473E08FE793E07E
:10063000DAD56EE273E08FE793E0D5D54AE050E07B
:10064000B4018FE793E088D665E473E08FE793E029
:10065000CAD561E373E08FE793E0C5D54AE050E087
:10066000B6018FE793E078D665E473E08FE793E017
:10067000BAD52C960FB6F894DEBF0FBECDBFDF9172
:10068000CF91FF90EF90DF90CF90BF90AF909F9071
:100690008F9008950895883008F06DC0E82FF0E03D
:1006A000EE0FFF1FE257FD4F7183608390E0FC0166
:1006B0003197E730F10590F5EE58FF4F0C94C80BD9
:1006C000809169008C7F842B80936900E89A08955B
:1006D00080916900440F551F440F551F837F842B61
:1006E00080936900E99A08958091690074E0440F4D
:1006F000551F7A95E1F78F7C842B80936900EA9AE5
:1007000008958091690066E0440F551F6A95E1F7EE
:100710008F73842B80936900EB9A089580916A000F
:100720008C7F842B80936A00EC9A089580916A00F4
:10073000440F551F440F551F837F842B80936A00FD
:10074000ED9A089580916A0024E0440F551F2A9580
:10075000E1F78F7C842B80936A00EE9A0895809154
:100760006A0096E0440F551F9A95E1F78F73842B2A
:1007700080936A00EF9A08951F920F920FB60F921E
:1007800011240BB60F922F933F934F935F936F9368
:100790007F938F939F93AF93BF93EF93FF93E091DA
:1007A0009202F09193021995FF91EF91BF91AF9151
:1007B0009F918F917F916F915F914F913F912F9179
:1007C0000F900BBE0F900FBE0F901F9018951F92A9
:1007D0000F920FB60F9211240BB60F922F933F93E7
:1007E0004F935F936F937F938F939F93AF93BF9339
:1007F000EF93FF93E0919402F09195021995FF9188
:10080000EF91BF91AF919F918F917F916F915F9188
:100810004F913F912F910F900BBE0F900FBE0F90F5
:100820001F9018951F920F920FB60F9211240BB6BE
:100830000F922F933F934F935F936F937F938F9379
:100840009F93AF93BF93EF93FF93E0919602F09144
:1008500097021995FF91EF91BF91AF919F918F9161
:100860007F916F915F914F913F912F910F900BBEB0
:100870000F900FBE0F901F9018951F920F920FB6FA
:100880000F9211240BB60F922F933F934F935F93C8
:100890006F937F938F939F93AF93BF93EF93FF9348
:1008A000E0919802F09199021995FF91EF91BF9113
:1008B000AF919F918F917F916F915F914F913F91F8
:1008C0002F910F900BBE0F900FBE0F901F90189599
:1008D0001F920F920FB60F9211240BB60F922F9307
:1008E0003F934F935F936F937F938F939F93AF93B8
:1008F000BF93EF93FF93E0918E02F0918F021995D1
:10090000FF91EF91BF91AF919F918F917F916F91E7
:100910005F914F913F912F910F900BBE0F900FBEA3
:100920000F901F9018951F920F920FB60F921124DF
:100930000BB60F922F933F934F935F936F937F93D9
:100940008F939F93AF93BF93EF93FF93E0919002A8
:10095000F09191021995FF91EF91BF91AF919F9105
:100960008F917F916F915F914F913F912F910F9058
:100970000BBE0F900FBE0F901F9018951F920F92F5
:100980000FB60F9211240BB60F922F933F934F93F4
:100990005F936F937F938F939F93AF93BF93EF93E7
:1009A000FF93E0919A02F0919B021995FF91EF91CC
:1009B000BF91AF919F918F917F916F915F914F9177
:1009C0003F912F910F900BBE0F900FBE0F901F9075
:1009D00018951F920F920FB60F9211240BB60F921B
:1009E0002F933F934F935F936F937F938F939F9337
:1009F000AF93BF93EF93FF93E0919C02F0919D0220
:100A00001995FF91EF91BF91AF919F918F917F9138
:100A10006F915F914F913F912F910F900BBE0F906F
:100A20000FBE0F901F9018951F920F920FB60F9246
:100A300011242F933F938F939F93AF93BF938091F4
:100A4000770390917803A0917903B0917A03309164
:100A5000760323E0230F2D3720F40196A11DB11D4D
:100A600005C026E8230F0296A11DB11D2093760331
:100A70008093770390937803A0937903B0937A03DC
:100A800080917B0390917C03A0917D03B0917E03C4
:100A90000196A11DB11D80937B0390937C03A093CD
:100AA0007D03B0937E03BF91AF919F918F913F9152
:100AB0002F910F900FBE0F901F9018952FB7F8949D
:100AC00060917703709178038091790390917A0314
:100AD0002FBF0895789484B5826084BD84B5816009
:100AE00084BD85B5826085BD85B5816085BDEEE636
:100AF000F0E0808181608083E1E8F0E01082808115
:100B000082608083808181608083E0E8F0E0808182
:100B100081608083E1EBF0E0808184608083E0EBA2
:100B2000F0E0808181608083E1E9F0E08081826093
:100B30008083808181608083E0E9F0E08081816052
:100B40008083E1EAF0E0808182608083808181603F
:100B50008083E0EAF0E0808181608083E1E2F1E07F
:100B6000808182608083808181608083E0E2F1E027
:100B7000808181608083EAE7F0E080818460808307
:100B800080818260808380818160808380818068B1
:100B900080831092C100089590E0FC013197E2310A
:100BA000F10508F04BC0E758FF4FF2C58091800077
:100BB0008F7703C0809180008F7D8093800008959F
:100BC00080918000877FF9CF84B58F7702C084B58C
:100BD0008F7D84BD08958091B0008F7703C0809190
:100BE000B0008F7D8093B0000895809190008F7742
:100BF00007C0809190008F7D03C080919000877F17
:100C00008093900008958091A0008F7707C0809115
:100C1000A0008F7D03C08091A000877F8093A000FB
:100C20000895809120018F7707C0809120018F7DEA
:100C300003C080912001877F809320010895CF9386
:100C4000DF9390E0FC01E45AFE4F2491FC01EE5545
:100C5000FE4F8491882349F190E0880F991FFC0191
:100C6000EE5FFD4FA591B49188519E4FFC01C59157
:100C7000D4919FB7611108C0F8948C91209582237C
:100C80008C93888182230AC0623051F4F8948C914D
:100C9000322F309583238C938881822B888304C0E4
:100CA000F8948C91822B8C939FBFDF91CF91089504
:100CB0000F931F93CF93DF931F92CDB7DEB7282FEB
:100CC00030E0F901EA5EFE4F8491F901E45AFE4FEB
:100CD0001491F901EE55FE4F04910023C1F08823D1
:100CE00019F0698359DF6981E02FF0E0EE0FFF1FF3
:100CF000E851FE4FA591B4919FB7F8948C91611182
:100D000003C01095812301C0812B8C939FBF0F904E
:100D1000DF91CF911F910F910895FC01818D228D5C
:100D200090E0805C9F4F821B91098F7399270895F3
:100D3000FC01918D828D981731F0828DE80FF11DA5
:100D4000858D90E008958FEF9FEF0895FC01918DC0
:100D5000828D981761F0828DDF01A80FB11D5D961D
:100D60008C91928D9F5F9F73928F90E008958FEF8B
:100D70009FEF08958BE598E0892B39F080E090E0B3
:100D8000892B19F098D1811125C080E090E0892B42
:100D900041F080E090E0892B21F00E940000811159
:100DA0001CC080E090E0892B41F080E090E0892B2E
:100DB00021F00E940000811113C080E090E0892B97
:100DC000A1F080E090E0892B81F00E940000811169
:100DD0000AC008950E940000D8CF0E940000E1CF11
:100DE0000E940000EACF0C9400000895FC01848D5D
:100DF000DF01A80FB11DA35ABF4F2C91848D90E045
:100E000001968F739927848FA689B7892C93A0891F
:100E1000B1898C9180648C93938D848D981306C0D6
:100E20000288F389E02D80818F7D80830895CF93A0
:100E3000DF93EC01888D8823C1F0EA89FB898081EA
:100E400085FD05C0A889B9898C9186FD0EC00FB6B5
:100E500007FCF5CF808185FFF2CFA889B9898C91F5
:100E600085FFEDCFCE01C2DFE8CFDF91CF910895AE
:100E7000CF92DF92FF920F931F93CF93DF931F9236
:100E8000CDB7DEB76C0181E0D60158968C935897A8
:100E90005B969C915B975C968C915C97981307C0CE
:100EA0005096ED91FC915197808185FD2DC0F60102
:100EB000038D10E00F5F1F4F0F731127F02EF60107
:100EC000848DF81210C00FB607FCF9CFD6015096EA
:100ED000ED91FC915197808185FFF1CFC601698327
:100EE00085DF6981ECCF838DE80FF11DE35AFF4F59
:100EF0006083D6015B960C935B975296ED91FC91C3
:100F00005397808180620CC0D6015696ED91FC917A
:100F1000579760835096ED91FC9151978081806442
:100F2000808381E090E00F90DF91CF911F910F912E
:100F3000FF90DF90CF900895BF92CF92DF92EF9213
:100F4000FF92CF93DF93EC016A017B01B22EE88917
:100F5000F98982E08083411581EE580761057105AA
:100F600099F060E079E08DE390E0A7019601EED37F
:100F700021503109410951095695479537952795D3
:100F8000211580E1380790F0E889F989108260E83E
:100F900074E88EE190E0A7019601D8D32150310981
:100FA000410951095695479537952795EC85FD855B
:100FB0003083EE85FF852083188EEC89FD89B08211
:100FC000EA89FB89808180618083EA89FB8980814D
:100FD00088608083EA89FB89808180688083EA89D0
:100FE000FB8980818F7D8083DF91CF91FF90EF908F
:100FF000DF90CF90BF9008951F920F920FB60F927F
:1010000011240BB60F922F938F939F93EF93FF931F
:10101000E0918F03F09190038081E0919503F0912E
:10102000960382FD12C09081809198038F5F8F7329
:1010300020919903821751F0E0919803F0E0E15874
:10104000FC4F958F8093980301C08081FF91EF91B1
:101050009F918F912F910F900BBE0F900FBE0F900D
:101060001F9018951F920F920FB60F9211240BB676
:101070000F922F933F934F935F936F937F938F9331
:101080009F93AF93BF93EF93FF938FE793E0AEDE11
:10109000FF91EF91BF91AF919F918F917F916F9150
:1010A0005F914F913F912F910F900BBE0F900FBE0C
:1010B0000F901F9018958FE793E02FDE21E0892B8A
:1010C00009F420E0822F0895109282031092810388
:1010D00088EE93E0A0E0B0E08093830390938403D4
:1010E000A0938503B093860388E393E090938003F5
:1010F00080937F0385EC90E090938C0380938B0327
:1011000084EC90E090938E0380938D0380EC90E0CC
:101110009093900380938F0381EC90E090939203DF
:101120008093910382EC90E09093940380939303D7
:1011300086EC90E090939603809395031092980329
:101140001092990310929A0310929B030895CF92E4
:10115000DF92EF92FF920F931F93CF93DF937C0167
:101160006A01EB0100E010E00C151D0571F06991BA
:10117000D701ED91FC910190F081E02DC701199507
:10118000892B19F00F5F1F4FEFCFC801DF91CF916F
:101190001F910F91FF90EF90DF90CF900895611510
:1011A000710581F0DB010D900020E9F7AD014150A0
:1011B0005109461B570BDC01ED91FC910280F38134
:1011C000E02D199480E090E00895DC01ED91FC9110
:1011D000DB0114964D915C9115976D917C91028085
:1011E000F381E02D1994DBCFDC01ED91FC910190AE
:1011F000F081E02D199464E473E0D1CF0F931F9335
:10120000CF93DF93EC01CBDF8C01CE01F4DF800FB5
:10121000911FDF91CF911F910F9108958F929F920F
:10122000AF92BF92CF92DF92EF92FF920F931F93F4
:10123000CF93DF93CDB7DEB7A1970FB6F894DEBF9B
:101240000FBECDBF7C01C42EE52FCB01D22E19A23B
:1012500021E02D1510F02AE0D22E8E010F5D1F4FD8
:101260008D2C912CA12CB12C6C2D7E2FA5019401DD
:101270006DD28C2DD29E80191124015011098A3013
:1012800014F4805D01C0895CF8018083211531056B
:101290004105510521F0C22EE32FCA01E5CFB80167
:1012A000C7017DDFA1960FB6F894DEBF0FBECDBF9C
:1012B000DF91CF911F910F91FF90EF90DF90CF9032
:1012C000BF90AF909F908F900895CF92DF92EF9252
:1012D000FF920F931F93CF93DF93EC016A017B0181
:1012E0002115310579F4E881F9810190F081E02D33
:1012F000642FDF91CF911F910F91FF90EF90DF90BE
:10130000CF9019942A303105D9F477FF18C06DE2D7
:101310006BDF8C0144275527BA014C195D096E0912
:101320007F092AE0CE017ADF800F911FDF91CF91F4
:101330001F910F91FF90EF90DF90CF9008952AE0DA
:10134000B701A601CE01DF91CF911F910F91FF90C0
:10135000EF90DF90CF9062CF9A01AB01662757FDE7
:101360006095762FB2CF0F931F93CF93DF93EC014D
:10137000A5DB688779878A879B87E881F981068062
:10138000F781E02DCE01199597FF14C097DB0885F2
:1013900019852A853B85601B710B820B930B0C8191
:1013A0001D812E813F81601771078207930728F303
:1013B0008FEF9FEFDF91CF911F910F9108950F93C2
:1013C0001F93CF93DF93EC018B0166E473E075D03C
:1013D000C801C9DF97FD04C0682FCE012CD1F8CF1A
:1013E000CE01DF91CF911F910F910895FC01808173
:1013F000918170C2CF93DF93EC018881998100972E
:1014000009F068D2198218821D821C821B821A82FE
:10141000DF91CF9108950F931F93CF93DF93EC014A
:101420008B016F5F7F4F88819981E3D2009731F004
:10143000998388831B830A8381E001C080E0DF9168
:10144000CF911F910F910895CF93DF93EC01888185
:101450009981892B29F08A819B818617970758F4F7
:10146000CE01D9DF882341F08C819D81892B19F42D
:10147000E881F981108281E0DF91CF910895EF92A8
:10148000FF920F931F93CF93DF93EC017B018A01AF
:10149000BA01DADF811103C0CE01ACDF06C01D83C3
:1014A0000C83B70188819981C0D3CE01DF91CF91A0
:1014B0001F910F91FF90EF900895FC01118210820F
:1014C00013821282158214826115710551F0FB019D
:1014D00001900020E9F7AF0141505109461B570B1D
:1014E000CECF08950F931F93CF93DF938C01EB0121
:1014F000FC0180819181009789F0428153812C8188
:101500003D814217530748F0688179818ED38C81E1
:101510009D81F8019583848312C0DCD188819981F3
:10152000F801918380838A819B81938382838C815C
:101530009D8195838483198218821B821A821D8261
:101540001C82DF91CF911F910F910895CF93DF936C
:10155000EC018617970709F0C5DFCE01DF91CF9127
:101560000895CF93DF93EC016115710559F0FB01EC
:1015700001900020E9F7AF0141505109461B570B7C
:101580007EDF01C037DFCE01DF91CF9108950F9349
:101590001F93CF93DF93CDB7DEB762970FB6F89462
:1015A000DEBF0FBECDBF8C01CB01F80111821082CE
:1015B000138212821582148250E0BE016F5F7F4F4A
:1015C0003BD3BE016F5F7F4FC801CBDF62960FB682
:1015D000F894DEBF0FBECDBFDF91CF911F910F9169
:1015E0000895EF92FF920F931F93CF93DF93EC0137
:1015F0007B010C811D816115710511F480E014C01F
:101600004115510581F0040F151FB8011DDF882316
:10161000A9F3288139818C819D81B701820F931FA5
:1016200004D31D830C8381E0DF91CF911F910F9133
:10163000FF90EF900895CF93DF931F921F92CDB745
:10164000DEB769831A8241E050E0BE016F5F7F4FD1
:10165000C8DF0F900F90DF91CF910895FC01248196
:101660003581232B31F421E06115710599F0FB01DF
:1016700008C0FC01808191816115710531F421E080
:10168000FC018081882331F004C0C6D221E0892B7F
:1016900009F020E0822F0895BF92CF92DF92EF925F
:1016A000FF920F931F93CF93DF936C017B01EA01AD
:1016B00089012417350720F48D2FE901042F182FF5
:1016C00066E473E0C601F9DED70114968D919C9112
:1016D0001597C817D907C0F48017910708F48C0133
:1016E000D701ED91FC911197E00FF11FB0801082AE
:1016F0006D917C916C0F7D1FC60133DFD701ED9199
:10170000FC91E00FF11FB082C601DF91CF911F91D4
:101710000F91FF90EF90DF90CF90BF900895FC0164
:1017200080819181009709F048C260E070E0CB01B0
:1017300008950895CFD9FDDF0E94A501CAEBD6E038
:101740000E9431022097E1F315DBFACFA1E21A2EB5
:10175000AA1BBB1BFD010DC0AA1FBB1FEE1FFF1F55
:10176000A217B307E407F50720F0A21BB30BE40BA5
:10177000F50B661F771F881F991F1A9469F76095EC
:101780007095809590959B01AC01BD01CF010895A6
:10179000EE0FFF1F0590F491E02D19940790F6913C
:1017A000E02D1994CF93DF938230910510F482E0FD
:1017B00090E0E0911E04F0911F0420E030E0A0E0F2
:1017C000B0E0309739F14081518148175907B8F09E
:1017D0004817590771F482819381109729F0139665
:1017E0009C938E9312972CC090931F0480931E0499
:1017F00027C02115310531F04217530718F0A90110
:10180000DB0101C0EF019A01BD01DF010280F3811C
:10181000E02DD7CF21153105F9F0281B390B2430E5
:10182000310580F48A819B816115710521F0FB01EE
:101830009383828304C090931F0480931E04FE014F
:10184000329644C0FE01E20FF31F81939193225020
:101850003109398328833AC020911C0430911D043A
:10186000232B41F4209102023091030230931D0496
:1018700020931C04209100023091010221153105B2
:1018800041F42DB73EB74091040250910502241B4C
:10189000350BE0911C04F0911D04E217F307A0F44E
:1018A0002E1B3F0B2817390778F0AC014E5F5F4FB6
:1018B0002417350748F04E0F5F1F50931D044093C7
:1018C0001C048193919302C0E0E0F0E0CF01DF912E
:1018D000CF910895CF93DF93009709F487C0FC015F
:1018E000329713821282C0911E04D0911F04209758
:1018F00081F420813181280F391F80911C0490913F
:101900001D048217930779F5F0931D04E0931C04DE
:101910006DC0DE0120E030E0AE17BF0750F4129634
:101920004D915C9113979D014115510509F1DA0123
:10193000F3CFB383A28340815181840F951F8A170F
:101940009B0771F48D919C911197840F951F0296BE
:101950009183808312968D919C91139793838283B8
:101960002115310529F4F0931F04E0931E043EC0B5
:10197000D9011396FC93EE9312974D915D91A40FAC
:10198000B51FEA17FB0779F480819181840F951FB9
:101990000296D90111969C938E938281938113961E
:1019A0009C938E931297E0E0F0E08A819B810097F0
:1019B00019F0FE01EC01F9CFCE01029628813981A0
:1019C000820F931F20911C0430911D0428173907A2
:1019D00069F4309729F410921F0410921E0402C07B
:1019E00013821282D0931D04C0931C04DF91CF9107
:1019F00008956F927F928F929F92AF92BF92CF92F3
:101A0000DF92EF92FF920F931F93CF93DF93EC013E
:101A1000CB01209779F4DF91CF911F910F91FF9027
:101A2000EF90DF90CF90BF90AF909F908F907F907E
:101A30006F90B8CEFE01E60FF71F9E0122503109CC
:101A4000E217F30708F4A8C0D9010D911C91119772
:101A500006171707B0F00530110508F49BC0A80160
:101A6000445051094617570708F494C00250110911
:101A7000061B170B019311936D937C93CF012ADF03
:101A800089C05B01A01AB10A4E01800E911EA0917F
:101A90001E04B0911F04612C712C60E070E010975F
:101AA00009F449C0A815B905C9F5ED90FC90119746
:101AB000670142E0C40ED11CCA14DB0478F147016F
:101AC0008A189B08640142E0C40ED11C1296BC9097
:101AD00012971396AC91B5E0CB16D10440F0B282C8
:101AE000A38391828082D9018D939C9309C00E5F5C
:101AF0001F4F0E0D1F1DF90111830083EB2DFA2FCF
:101B00006115710531F0DB011396FC93EE9312978A
:101B100041C0F0931F04E0931E043CC06D917C9182
:101B200011976616770608F43B01BD0112960D90D9
:101B3000BC91A02DB4CF60911C0470911D04681558
:101B40007905E9F468167906D0F4409100025091C5
:101B500001024115510541F44DB75EB76091040291
:101B600070910502461B570BE417F507A8F4F09394
:101B70001D04E0931C04F901918380830BC012DEE5
:101B80007C01009749F0A801BE013DD0CE01A2DE44
:101B9000C70104C0CE0102C080E090E0DF91CF9188
:101BA0001F910F91FF90EF90DF90CF90BF90AF907B
:101BB0009F908F907F906F9008951F93FC019927BD
:101BC0008827BC01E89411911032E9F3193010F024
:101BD0001E30C8F31B3249F01D3241F4689405C031
:101BE0003FD0610F711D811D911D119110531A304D
:101BF000B8F33EF490958095709561957F4F8F4F27
:101C00009F4F1F910895FB01DC0102C001900D92CE
:101C100041505040D8F70895FB01DC018D910190AF
:101C200080190110D9F3990B0895FB01DC01019093
:101C30000D920020E1F708954532510518F4423025
:101C400008F004C0FB011082CB010895BB274A3085
:101C500031F4992322F4BDE2909581959F4F16C0EF
:101C6000592F482F372F262F660F771F881F991F50
:101C7000660F771F881F991F620F731F841F951FA0
:101C8000660F771F881F991F0895BB27FB015527F3
:101C9000AA27880F991FAA1FA41710F0A41B8395C9
:101CA0005051B9F7A05DAA3308F0A95DA193009740
:101CB00079F7B111B1931192CB0100C0DC01FC01A5
:101CC000672F71917723E1F7329704C07C916D9370
:101CD00070836291AE17BF07C8F30895F894FFCFE1
:101CE000000020048000140013000D000C000B0005
:101CF0000B000A00090008000800070006000500A4
:101D000005000400030002000200010000000E00B4
:101D10000E000F001100130013001600170018002A
:101D2000180019001A001B001B001C001D001E00DB
:101D30001E001F002000210021002200230024009B
:101D400024002500260027002700280029002A005B
:101D50002A002B002C002D002E002F003000310017
:101D600032003300340035003500040010004A030F
:101D70004A034A034A034A034A034A034A035354A1
:101D800041525400424C55455F544F500047524514
:101D9000454E5F544F50005245445F544F500055DC
:101DA000565F424F54544F4D00424C55455F424F91
:101DB00054544F4D00415155415F424F54544F4D83
:101DC000005245445F424F54544F4D0047524545E1
:101DD0004E5F424F54544F4D0059454C4C4F575F46
:101DE000424F54544F4D00505552504C455F424F56
:101DF00054544F4D004449445F50524553535F4C37
:101E0000454400320050696E204E756D3A00313AFB
:101E100000323A00000000003807A7088D06A60629
:101E2000980617070D0A006E616E00696E66006FF6
:061E30007666002E0000A2
:00000001FF
